:020000040800F2
:1000000080D7002045010008F70600081306000805
:10001000F3060008E90200089D0E00080000000039
:10002000000000000000000000000000010B0008BC
:100030006D03000800000000C5080008ED0B000873
:100040005F0100085F0100085F0100085F01000810
:100050005F0100085F0100085F010008D503000888
:100060005F0100085F0100085F0100085F010008F0
:100070005F0100085F0100085F0100085F010008E0
:100080005F0100085F0100085F0100085F010008D0
:100090005F0100085F0100085F0100085F010008C0
:1000A0005F0100085F0100085F0100085F010008B0
:1000B000250D00085F0100085F0100085F010008CE
:1000C0005F0100085F0100085F0100085F01000890
:1000D0005F0100085F0100085F0100085F01000880
:1000E0005F0100085F0100085F0100085F01000870
:1000F0005F0100085F0100085F0100085F01000860
:100100005F0100085F0100085F0100085F0100084F
:100110005F0100085F0100085F0100085F0100083F
:100120005F0100085F0100085F0100085F0100082F
:10013000DFF80CD000F07AF800480047A13A000838
:1001400080D700200648804706480047FEE7FEE7C4
:10015000FEE7FEE7FEE7FEE7FEE7FEE7FEE7FEE777
:10016000C50C00083101000840EA01039B0703D0D9
:1001700009E008C9121F08C0042AFAD203E011F8E6
:10018000013B00F8013B521EF9D27047D2B201E0A8
:1001900000F8012B491EFBD270470022F6E710B58C
:1001A00013460A4604461946FFF7F0FF204610BDE5
:1001B00030B504460020034600E05B1C934203D2A6
:1001C000E05CCD5C401BF8D030BD2DE9F05F05460A
:1001D000002092469B4688460646814640241BE006
:1001E000284641464746224600F041F853465A46C3
:1001F000C01A914110D311461846224600F028F843
:100200002D1A67EB01084F4622460120002100F01D
:100210001FF817EB00094E41201EA4F10104DFDC9A
:10022000484631462A464346BDE8F09F064C074DF6
:1002300006E0E06840F0010394E8070098471034B6
:10024000AC42F6D3FFF778FF8C8F0008AC8F000824
:10025000202A04DB203A00FA02F100207047914086
:10026000C2F1200320FA03F3194390407047202A7B
:1002700004DB203A21FA02F00021704721FA02F350
:10028000D040C2F120029140084319467047000057
:1002900010B500F0C1F900F0D9FC00F027F805A076
:1002A00000F0FEFD00F08AFB00F062F808A000F00C
:1002B000F7FD10BD44454255475F55534152545FC9
:1002C000496E69742073756365737366756C0A0093
:1002D000535049315F496E69742073756365737358
:1002E00066756C0A0000000000BFFEE700B585B02F
:1002F0000121880300F0E8FA0121052000F0E4FA6A
:100300004FF40070ADF8100018208DF81300032092
:100310008DF8120004A9134800F0ECF84FF4806047
:10032000ADF8100004208DF8130004A90D4800F06A
:10033000E1F84FF4E13000900020ADF80400ADF892
:100340000600ADF80800ADF80C000C20ADF80A006E
:100350006946054800F032FD0121034800F014FD14
:1003600005B000BD000801400038014070470000A2
:100370001FB50121042000F0A7FA0220ADF800000B
:1003800048208DF803006946114800F0B3F80720B3
:100390008DF80C0000208DF80D008DF80E00012066
:1003A0008DF80F0003A800F0A7F90121002000F04C
:1003B00081F80220019000208DF808000C208DF8B3
:1003C000090001208DF80A0001A800F029F81FBDDE
:1003D0000008014010B5022000F00EF820B1022004
:1003E00000F004F804F07AFE10BD00000149086036
:1003F0007047000014040140014600200022074B12
:100400001B6803EA0102054B14331B680B4013B150
:100410000AB1012000E00020704700000004014004
:10042000002123498279002A3AD00A4612680368DB
:100430009A430B461A600A1D126803689A430B1D03
:100440001A60027911440A6803681A430A60184A5C
:100450000832126803689A43154B08331A601A1D54
:10046000126803689A43124B0C331A604279102ABF
:100470000ED11A1F126803681A430D4B08331A6015
:100480001A1D126803681A43094B0C331A600DE0F9
:100490000749427911440A6803681A430A6005E073
:1004A000027911440A6803689A430A6070470000A1
:1004B0000004014030B500228B071C0F0F2303FA04
:1004C00004F20B4B8C1053F824309343084C8D10DE
:1004D00044F8253023468C1053F824308C07240F21
:1004E00000FA04F42343024C8D1044F8253030BD4B
:1004F000080001402DE9F0410246002500260020B9
:1005000000230024002791F803C00CF00F0591F898
:1005100003C00CF0100CBCF1000F03D091F802C026
:100520004CEA050591F800C0BCF1000F31D0146809
:1005300000202BE04FF0010C0CFA00F3B1F800C0E2
:100540000CEA03069E4220D183004FF00F0C0CFAF8
:1005500003F7BC4305FA03FC4CEA040491F803C01A
:10056000BCF1280F06D14FF0010C0CFA00FCC2F8C8
:1005700014C00AE091F803C0BCF1480F05D14FF058
:10058000010C0CFA00FCC2F810C0401C0828D1D3A2
:100590001460B1F800C0BCF1FF0F34DD54680020D6
:1005A0002EE000F1080C4FF0010808FA0CF3B1F846
:1005B00000C00CEA03069E4221D183004FF00F0CCD
:1005C0000CFA03F7BC4305FA03FC4CEA040491F867
:1005D00003C0BCF1280F05D100F1080C08FA0CF893
:1005E000C2F8148091F803C0BCF1480F07D100F1A4
:1005F000080C4FF0010808FA0CF8C2F81080401CF3
:100600000828CED35460BDE8F08141617047016194
:10061000704700BFFEE7000008B501214FF4847069
:1006200000F052F90120ADF8000003208DF802001F
:1006300010208DF8030069460E48FFF75BFF40204D
:10064000ADF8000069460C48FFF754FF8020ADF874
:10065000000069460848FFF74DFF01210548FFF7F4
:10066000D4FF40210448FFF7D0FF80210248FFF764
:10067000CCFF08BD000C01400020014000B587B050
:1006800003F0C2F90EA000F00BFC124806901248CD
:1006900005906FF07F40049010481149002205AB8F
:1006A000CDE90021029004AA06A90E4803F0DCFD62
:1006B0000C4803F045FE0B4803F09CFE07B000BD5C
:1006C0006C7769705F696E697420737563636573B5
:1006D000730A0000C0A80126C0A801011D2300085C
:1006E000312400084CD3002010B50446FFF7C6FFA4
:1006F00010BD00BFFEE7704770B5002100230F2238
:10070000C47804B3154C246804F4E064C4F5E064D0
:10071000210AC1F10403CA40447804FA03F1847841
:100720001440214309010E4C0678A155047804F0C9
:100730001F050124AC4005786D11AD0005F1E025E1
:10074000C5F8004109E0047804F01F050124AC401D
:10075000044D0678761145F8264070BD0CED00E09A
:1007600000E400E080E100E02DE9F0418046002651
:10077000002500270024154940F2DC5000F02CFE33
:10078000054615B90020BDE8F081A9B2002203207A
:1007900003F04CFE06462EB929460DA000F080FB62
:1007A0000020F0E734460BE06289084BD9196068F5
:1007B000FFF7DAFC608907442468AF4200D301E008
:1007C000002CF1D100BF3046DDE700008407002097
:1007D0005061636B6574526563656976653A207034
:1007E0006275665F616C6C6F63206661696C202C5A
:1007F0006C656E3D25750A090000000070B5054660
:10080000002600242E4617E07289154B18197168CE
:10081000FFF7AAFC7089044440F2DC50844202D8FD
:100820002889A04207D22A8921460EA000F038FB71
:100830006FF0010070BD3668002EE5D12889A04216
:1008400005D10749204600F027FE0020F2E72A895B
:1008500021460FA000F024FB6FF00100EAE7000042
:10086000A80100205061636B657453656E643A2083
:100870006572726F722C746D706C656E3D25752C8F
:10088000746F745F6C656E3D25750A090000000089
:100890005061636B657453656E643A206C656E6776
:1008A0007468206D69736D61746368202C746D7059
:1008B0006C656E3D25752C746F745F6C656E3D259F
:1008C000750A09007047000029B1064A926902437F
:1008D000044B9A6104E0034A92698243014B9A6196
:1008E000704700000010024030B5002100220024B3
:1008F00000232D4D6D6805F00C0121B1042905D0B0
:10090000082923D105E0294D056022E0274D056027
:100910001FE0254D6D6805F47012234D6D6805F4D8
:100920008034022505EB92421CB9214D55430560E8
:100930000BE01D4D6D6805F400351DB11C4D554390
:10094000056002E0194D5543056002E0174D056052
:1009500000BF00BF144D6D6805F0F0010909154D89
:100960006B5C0568DD4045600F4D6D6805F4E06126
:10097000090A104D6B5C4568DD4085600A4D6D6865
:1009800005F46051C90A0B4D6B5C4568DD40C560DC
:10099000054D6D6805F44041890B074D6B5CC568DA
:1009A000B5FBF3F5056130BD0010024000127A007E
:1009B00000093D00140000202400002000B587B08D
:1009C00001210803FFF780FFE020ADF804000120BB
:1009D0008DF8060018208DF8070001A91C48FFF7C4
:1009E00089FD1020ADF8040001208DF806001020CC
:1009F0008DF8070001A91648FFF77CFD1021144867
:100A0000FFF705FE0020ADF808004FF48270ADF846
:100A10000A000020ADF80C00ADF80E00ADF8100093
:100A20004FF40070ADF812001020ADF81400002053
:100A3000ADF816000720ADF8180002A9054800F02F
:100A400041F80121034800F023F807B000BD000081
:100A5000000801400030014010B5044600BF0221EB
:100A60000A4800F021F80028F9D02146074800F094
:100A700027F800BF0121054800F016F80028F9D03A
:100A8000024800F01AF8C0B210BD0000003001406A
:100A900021B1028842F04002028004E002884FF651
:100AA000BF731A40028070470246002013890B4032
:100AB0000BB1012000E00020704701468889704793
:100AC0008181704710B50022028802F441520B88E0
:100AD0004C8823438C882343CC8823430C892343AD
:100AE0004C8923438C892343CC8923431A430280B6
:100AF000838B4FF2FF74234083830B8A038210BDE4
:100B0000704710B500F002F810BD00000CB50020D1
:100B1000019000903348006840F48030314908600B
:100B200000BF3048006800F4003000900198401C7D
:100B30000190009818B90198B0F5A06FF1D129483B
:100B4000006800F4003010B10120009001E00020A6
:100B500000900098012843D12348006840F010001D
:100B6000214908600846006820F003000860084634
:100B7000006840F0020008601A484068194948605F
:100B80000846406848600846406840F48060486015
:100B90000846406820F47C1048600846406840F4ED
:100BA000E81048600846006840F08070086000BFA8
:100BB0000C48006800F000700028F9D0094840682F
:100BC00020F00300074948600846406840F00200F2
:100BD000486000BF0348406800F00C000828F9D1C5
:100BE0000CBD0000001002400020024010B500F0D3
:100BF000BFF812480068401C10490860104800689F
:100C0000401C0F49086008460068B0F5FA7F07D11C
:100C1000002008600B48006880F001000949086066
:100C200006480068142807D30020044908600648D5
:100C3000006814300449086010BD0000D400002092
:100C4000D80000200C0C01404000002030B51A48AC
:100C500000684FF47A72B0FBF2F1B1F1807F01D3FA
:100C600001201DE021F07F40401E4FF0E022506146
:100C700050170F22002807DA13071D0E0F4B00F044
:100C80000F04241F1D5503E013071C0E0C4B1C54AE
:100C900000BF00204FF0E02290610720106100208B
:100CA00008B100BFFEE74FF0E020006940F001000E
:100CB0004FF0E021086130BD0000002018ED00E099
:100CC00000E400E010B51348006840F0010011494D
:100CD000086008464068104908400E4948600846C8
:100CE00000680E4908400B4908600846006820F477
:100CF000802008600846406820F4FE0048604FF4F9
:100D00001F008860FFF7FDFE4FF000600449086097
:100D100010BD0000001002400000FFF8FFFFF6FECB
:100D200008ED00E010B50121880700F010F840B18F
:100D300004480088401C034908800121880700F00E
:100D400003F810BD28000020CA430282704730B566
:100D50000246002000230024158A05EA0103958934
:100D600005EA010413B10CB1012000E0002030BD00
:100D70000448006820B103480068401E014908602B
:100D8000704700002C00002021B1828942F40052FB
:100D9000828104E082894DF6FF731A408281704798
:100DA00002460020B1F5007F00D100BF13880B4040
:100DB0000BB1012000E00020704700002DE9F04752
:100DC00086B005460E460024A24600BFA146002775
:100DD000B08900B100BF2F462C8A4CF6FF7004404A
:100DE000F08804432C82AC894EF6F3100440B0889E
:100DF00031890843718908430443AC81AC8A4FF6BA
:100E0000FF400440B0890443AC8201A8FFF76CFDA9
:100E10001F48874202D1DDF810A001E0DDF80CA0E8
:100E2000A88900F4004040B10AEBCA0000EB0A10A8
:100E300031684900B0FBF1F807E00AEBCA0000EBAB
:100E40000A1031688900B0FBF1F86420B8FBF0F0BB
:100E500004012009642101FB1089A88900F40040E5
:100E600040B1322000EBC900B0FBF1F000F0070008
:100E7000044308E0322000EB09106421B0FBF1F0DC
:100E800000F00F0004432C8106B0BDE8F08700009D
:100E900000380140C1F308028280704700BFFEE7BE
:100EA0000FB4054B10B503A9044A029800F018F8D6
:100EB00010BC5DF814FB0000F1240008DC000020E9
:100EC00002E008C8121F08C1002AFAD17047704713
:100ED000002001E001C1121F002AFBD17047000071
:100EE0002DE9FF4F8DB09B460F460446002606E0D5
:100EF00025280BD05A460F999047641C761C207801
:100F00000028F5D111B03046BDE8F08F0025A84685
:100F10000122984900E0054314F8013F203B02FA02
:100F200003F00842F7D120782E2817D114F8010FCA
:100F300045F004052A280ED06FF02F022078A0F18A
:100F4000300109290AD808EB880102EB410100EBC6
:100F50000108641CF2E757F8048B641C20786C28A5
:100F60000DD004DC4C2812D06A2811D104E074287A
:100F70000DD07A280CD10AE045F4001507E061781D
:100F800045F48015814202D1641C05F58015641C6E
:100F90002278692A45D008DC002AB3D0582A69D0C3
:100FA000632A10D0642A08D13BE0702A67D0732AE4
:100FB00013D0752A5CD0782A5CD010465A460F9917
:100FC0009047761CD3E017F8040B8DF80000002042
:100FD0008DF80100E946012003E057F8049B4FF02B
:100FE000FF3069074FF0000501D40AE06D1C45454C
:100FF0000DDA8542FADB19F805100029F6D106E072
:101000006D1C8542FCDB19F805100029F8D12E442F
:1010100004E019F8010B5A460F9990476D1EF8D25B
:10102000A5E00A200021CDE90801C5F302500228FD
:101030000DD001CFC117031E71F100030DDA4FF07F
:10104000000CD0EB0C006CEB01012D2308E0FF1D20
:1010500027F00707F7E80201EDE72B0504D52B235E
:101060008DF8283001233BE0EB0739D02023F7E748
:101070000A2000E010200021CDE9080107E010203F
:10108000002145F00405CDE908014FF00808C5F33B
:10109000025002280FD001CF00214FF0000A2B0789
:1010A0001FD5702A0DD0DDE908C38CF0100C5CEA66
:1010B000030C0CD015E0FF1D27F00707F7E802012D
:1010C000EBE740228DF828204FF0010A0BE050EAB0
:1010D000010306D030238DF828308DF82920022313
:1010E0009A46582A04D024A20DF120090B9209E057
:1010F00026A2F9E7DDE90823FFF767F80B9B9B5C65
:1011000009F8013D50EA0102F4D1ADEB09002030AD
:101110000890680701D44FF001080899884502DD5E
:10112000A8EB010000E000208046002506E00AA8A8
:101130005A46405D0F9990476D1C761C5545F6DB6D
:1011400004E030205A460F999047761CB8F1000110
:10115000A8F10108F5DC05E019F8010B5A460F99D2
:101160009047761C0899481E08900029F4DC641CFE
:10117000C5E60000092801003031323334353637F6
:1011800038396162636465660000000030313233D3
:101190003435363738394142434445460000000073
:1011A00010B5044600BF00BF00F0F0FF0022034965
:1011B00041F2883004F040F810BD0000A111000891
:1011C00070B5044610206A490860FF2200211046CD
:1011D00000F040FA00BF1D2000F0B5F900F001005A
:1011E0000028F8D00020634908600021082000F0A2
:1011F0000DFA0021092000F009FA00210C2000F06E
:1012000005FA00210D2000F001FAFE210A2000F06D
:10121000FDF919210B2000F0F9F9FF21042000F05D
:10122000F5F91921052000F0F1F9FF21062000F061
:10123000EDF91F21072000F0E9F9B021382000F076
:10124000E5F93F21282000F0E1F93021292000F0C4
:10125000DDF9F921302000F0D9F9F721312000F033
:10126000D5F90D21C02000F0D1F90021C12000F0F6
:10127000CDF93322C221802000F0ECF91221C620E2
:1012800000F0C4F90C21C72000F0C0F91521C420DA
:1012900000F0BCF9DC21CA2000F0B8F90521CB2010
:1012A00000F0B4F92178E42000F0B0F96178E5208D
:1012B00000F0ACF9A178E22000F0A8F9E178E32091
:1012C00000F0A4F92179E02000F0A0F96179E12093
:1012D00000F09CF9E42000F036F9217888422FD103
:1012E000E42000F030F90546294623A0FFF7D8FD99
:1012F000E52000F028F90546294623A0FFF7D0FD98
:10130000E22000F020F90546294623A0FFF7C8FD9A
:10131000E32000F018F90546294623A0FFF7C0FD99
:10132000E02000F010F90546294623A0FFF7B8FD9C
:10133000E12000F008F90546294623A0FFF7B0FD9B
:101340004FF48071002000F0E5F84FF48071102018
:1013500000F0E0F81F2000F03FF9C1221B2180209F
:1013600000F078F904221F21802000F073F970BD8D
:1013700010080140340000204D4141445235203DC9
:101380002025780D0A0000004D4141445234203D93
:101390002025780D0A0000004D4141445233203D84
:1013A0002025780D0A0000004D4141445232203D75
:1013B0002025780D0A0000004D4141445231203D66
:1013C0002025780D0A0000004D4141445230203D57
:1013D0002025780D0A0000002DE9F04105460F4652
:1013E000392000F0B0F810B90020BDE8F08129489C
:1013F0000178002000F00AF926480088C0F3072190
:10140000012000F003F900213A2000F0C3F821493F
:10141000086000213A2000F0BDF81E49096841EA41
:1014200000201C49086000213A2000F0B3F804466F
:1014300000213A2000F0AEF844EA0024241F0021E5
:101440003A2000F0A7F8064600213A2000F0A2F862
:1014500046EA0026681EA04200D26C1E06F08000FC
:1014600008B9002403E03946204600F077F809481F
:1014700001780C2000F0CAF806480088C0F3072164
:101480000D2000F0C3F840221E21802000F0E2F879
:101490002046AAE73400002070B504460D4600BF80
:1014A0001F2000F050F800F008000028F8D1FF21BC
:1014B000022000F0ABF81921032000F0A7F8FF206C
:1014C0002044C1B2062000F0A1F841F6FF102044EC
:1014D000C0F30721072000F099F8002211467A2076
:1014E00000F0B8F82946204600F09CF808221F2199
:1014F000802000F0AFF81C2000F025F800F002007A
:1015000038B11F2000F068F808221F21A02000F049
:10151000A1F870BD70B505460C462946D42000F0F0
:1015200075F8E1B2D62000F071F8C4F30721D72096
:1015300000F06CF800BFEA2000F005F800F00100B0
:101540000028F8D170BD10B50446204600F044F8DC
:101550002146002000F01EF810BD000070B50546C1
:101560000C4610200A4908603A20FFF775FA05E09A
:101570006D1E0020FFF770FA2070641C002DF7D15B
:101580000020207010200249091F086070BD000073
:101590001408014070B505460C46002610200D4980
:1015A000086004F01F0040EA05063046FFF754FAD1
:1015B000FF20FFF751FA064604F0800018B1FF2023
:1015C000FFF74AFA064610200249091F0860304614
:1015D00070BD00001408014010B5044604F060001E
:1015E0000949097888420ED003221F21A02000F06B
:1015F00031F8C4F341121F21802000F02BF804F0D1
:1016000060000149087010BD3000002070B504462C
:101610000D462046FFF7E0FF2A462146402000F015
:1016200019F870BD70B504460D46102008490860D1
:101630007A20FFF711FA04E0641E2878FFF70CFA0D
:101640006D1C002CF8D110200149091F086070BDE5
:10165000140801402DE9F04104460D4616460027C6
:1016600010200949086005F01F0040EA04073846C9
:10167000FFF7F2F937463846FFF7EEF91020024936
:10168000091F0860BDE8F0811408014010B5044648
:1016900004F007017520FFF7B9FF10BD2DE9FC47E5
:1016A00005468846164600BF25B95EA0FFF7F8FB41
:1016B000BDE8FC8700BF70892A2810DA00BF00BF90
:1016C0005C48408C401C81B25A484184C08B401C0D
:1016D00081B25848C183304603F07AFAE8E7776868
:1016E00007F10E042088B0F5807F08D12079062804
:1016F00005D16079042802D16088082810D000BF85
:1017000000BF4C48008D401C81B24A480185C08B07
:10171000401C81B24748C183304603F059FAC7E7FD
:101720004448408B401C81B242484183D4F80E00AB
:101730000190A0690090281D08B1686810B94FF0A9
:10174000000907E000986968884201D1012000E0A3
:1017500000208146B9F1000F01D0012000E00220F5
:10176000034604F1080201A9284600F059FDE0886B
:10177000B0F5807F03D0B0F5007F43D13FE000BFDC
:1017800000BFB9F1000F31D000BF00BF022002F04E
:1017900035F9E080D4F80E00A0616868C4F80E0046
:1017A00000BF95F82200062804D02348FFF778FBF5
:1017B00000BFFEE700BFA068C4F81200A089E08265
:1017C000A0683860A089B880D8F80000A060B8F898
:1017D0000400A081D8F80000C7F80600B8F804009B
:1017E000788131462846AA69904707E0281D08B14C
:1017F000686808B900BF01E000BF00BF0BE000BF90
:1018000000BF08E000BF00BF0A48808D401C81B2C5
:101810000848818500BF00BF304603F0D9F900BFFA
:1018200046E700006E6574696620213D204E554CE8
:101830004C000000E0D10020108E00082DE9FE4F82
:10184000064688464FF00A09CA460A2700240020A7
:1018500002900190BB46009000BF6BE004EB840057
:101860006C4901EB8000857C0A2F04D11DB900BFB3
:1018700000BF67B25CE0002D5AD000BF012D06D03A
:10188000022D04DA64A0FFF70BFB00BFFEE700BFE8
:101890006EB104EB84015F4A02EB81013068496854
:1018A000884204D100BF00BF60B2BDE8FE8F012DA9
:1018B0002AD104EB8400574951F8200088B104EB89
:1018C000840001EB8000C17C0098814230DB4FFA3C
:1018D00084FB04EB84004F4901EB8000C07C009046
:1018E00026E004EB84004B4901EB8000C17C0298A8
:1018F00081421DDB4FFA84F904EB8400454901EB7A
:101900008000C07C029013E0022D11DB04EB840008
:10191000404901EB8000C17C0198814208DB4FFA0D
:1019200084FA04EB84003B4901EB8000C07C019009
:10193000601CC4B20A2C91DB08F0020020B90A2F07
:1019400007D108F0010020B900BF00BF4FF0FF3001
:10195000ABE70A2F02DAFCB200BF32E0BAF10A0F9D
:1019600010DA0AF0FF0400BF00BF00BF04EB8400E0
:10197000284951F8200020B137A0FFF791FA00BFA5
:10198000FEE712E0B9F10A0F03DA09F0FF0400BF25
:101990000BE0BBF10A0F03DA0BF0FF0400BF04E019
:1019A00000BF00BF4FF0FF307FE700BF0A2C04DB11
:1019B0002FA0FFF775FA00BFFEE700BF204600F03A
:1019C00077F800BF0A2C04DB29A0FFF769FA00BFF3
:1019D000FEE700BF00BF04EB84000E4901EB80006E
:1019E000807C20B127A0FFF75BFA00BFFEE700BFB5
:1019F00036B104EB8401074A02EB8101306848608C
:101A0000002004EB8401034A02EB8101C87460B238
:101A10004BE70000E00000207374617465203D3DD9
:101A2000204554484152505F53544154455F5045FE
:101A30004E44494E47207C7C207374617465203E7F
:101A40003D204554484152505F53544154455F53E3
:101A50005441424C450000006172705F7461626CD9
:101A6000655B695D2E71203D3D204E554C4C00005C
:101A700069203C204152505F5441424C455F5349DC
:101A80005A4500006172705F7461626C655B695DEC
:101A90002E7374617465203D3D2045544841525079
:101AA0005F53544154455F454D5054590000000068
:101AB00010B5044604EB8400194951F8200070B1B8
:101AC00000BF00BF04EB8401154A52F8210003F067
:101AD0007FF8002004EB8401114A42F82100002025
:101AE00004EB84010E4A02EB8101887404EB84014B
:101AF00002EB8101C87404EB840102EB8101886070
:101B000004EB840102EB8101486004EB8400114680
:101B100001EB800003490A68C2608988018210BD18
:101B2000E00000206A8D00082DE9FC4704460F46BE
:101B30001546A94600BF24B959A0FFF7B1F900BF67
:101B4000FEE700BF00BF27B959A0FFF7A9F900BF02
:101B5000FEE700BF00BF25B958A0FFF7A1F900BFFD
:101B6000FEE700BF0E21384603F0EEF850B100BF8B
:101B700000BF56484089401C544948816FF001001D
:101B8000BDE8FC872146286800F071FF10B1DFF83E
:101B900040817DE0287800F0F000E02815D1012098
:101BA0008DF8000000208DF801005E208DF8020005
:101BB000687800F07F008DF80300A8788DF80400A5
:101BC000E8788DF80500E84661E02868A1680840DB
:101BD000D4E901121140884210D0288880B24FF613
:101BE000A96188420AD004F10C0020B1E06810B16C
:101BF00004F10C0902E06FF00300C1E735480078FA
:101C000000EB8000344901EB8000807C022818DB67
:101C10003049097801EB81012F4A02EB8101D9F8A3
:101C20000000496888420CD12848C08D401C81B210
:101C30002648C185274802783946204600F04EF8EC
:101C40009EE700261BE006EB8600234901EB80009F
:101C5000807C022811DB06EB86011F4A02EB810122
:101C6000D9F800004968884207D11A490E70F2B2CB
:101C70003946204600F032F882E7701C46B20A2E40
:101C8000E1DB3A464946204600F084F878E700BF99
:101C9000434604F123023946204600F04DFA6FE72F
:101CA0006E6574696620213D204E554C4C00000045
:101CB0007120213D204E554C4C000000697061643C
:101CC000647220213D204E554C4C0000E0D1002094
:101CD000648D000838000020E000002070B5054643
:101CE0000E46144600BF04EB84001D4901EB800042
:101CF000807C022804DA1BA0FFF7D2F800BFFEE7C1
:101D000000BF04EB8400164901EB8000807C0228B0
:101D100017D104EB840001EB8000C07CE42810DBC9
:101D200004EB84000A4602EB8000011D284600F007
:101D3000EBF930B9032004EB8401094A02EB81017D
:101D4000887404EB8400064901EB800000F10C0369
:101D500005F123023146284600F0EEF970BD00007F
:101D6000E00000206172705F7461626C655B61729B
:101D7000705F6964785D2E7374617465203E3D20E8
:101D80004554484152505F53544154455F53544168
:101D9000424C45002DE9F05F80460F46164608F19B
:101DA00023094FF0FF3A4146386800F060FE38B929
:101DB000387800F0F000E02802D00FB1386828B978
:101DC00000BF00BF6FF00D00BDE8F09F0121384655
:101DD000FFF734FD0446002C0CDA00BF00BF3EB113
:101DE00000BF00BF5E48808C401C81B25C4881848B
:101DF0002046E9E704EB84005A4901EB8000807C2F
:101E000030B9012004EB8401564A02EB8101887449
:101E100000BF04EB8400534901EB8000807C012863
:101E20000BD004EB840001EB8000807C022804DAF4
:101E30004DA0FFF735F800BFFEE700BF04EB8400BC
:101E4000484901EB8000807C012800D03EB939462A
:101E5000404600F059F982460EB95046B4E700BF3B
:101E600026B94BA0FFF71CF800BFFEE700BF04EB4C
:101E700084003C4901EB8000807C02280FDB47494D
:101E80000C7004EB8400374901EB800000F10C0377
:101E90004A463146404600F04FF982465EE004EB88
:101EA0008400304901EB8000807C012856D14FF03E
:101EB000000B354613E000BF68892989884206D1A6
:101EC000286820B136A0FEF7EBFF00BFFEE700BF99
:101ED000287B012802D04FF0010B02E02D68002D75
:101EE000E9D100BFBBF1000F10D0298900220320E7
:101EF00002F09CFA05466DB13146284602F026FDF7
:101F000040B1284602F064FE002503E0354628462D
:101F100003F038F8BDB104EB8400124951F82000F9
:101F200040B100BF00BF04EB84010E4A52F821000B
:101F300002F04EFE04EB84000A4941F820504FF0B5
:101F4000000A00BF09E00648808C401C81B20448AA
:101F5000818400BF00BF4FF0FF3A00BF504633E717
:101F6000E0D10020E00000206172705F7461626C5B
:101F7000655B695D2E7374617465203D3D2050453D
:101F80004E44494E47206F7220535441424C450005
:101F90007120213D204E554C4C000000380000209F
:101FA0006E6F207061636B65742071756575657304
:101FB00020616C6C6F776564210000002DE9F84F9B
:101FC0000746884691469A46DDF828B000200090E2
:101FD00000BF27B939A0FEF763FF00BFFEE700BFCF
:101FE00000222A21032002F021FA05465DB900BF34
:101FF00000BF3648808C401C81B2344881844FF049
:10200000FF30BDE8F88F00BF68892A2804DA30A0C5
:10201000FEF746FF00BFFEE700BF6E6806F10E0444
:1020200000BF00BF0D9801F0E9FCE08000BF97F809
:102030002200062804D03348FEF732FF00BFFEE737
:1020400000BFDAF80000A060BAF80400A0810B9885
:102050000168C4F812108088E082D9F8000030606E
:10206000B9F80400B080D8F80000C6F80600B8F847
:1020700004007081DBF80000C4F80E000C980068C2
:10208000A0614FF4807020800820608006202071BD
:10209000042060714FF4C160B08129463846BA69A6
:1020A000904700900948008B401C08490883284647
:1020B00002F08EFD00250098A3E700006E657469AC
:1020C0006620213D204E554C4C000000E0D1002000
:1020D000636865636B2074686174206669727374E9
:1020E00020706275662063616E20686F6C64207377
:1020F0007472756374206574686172705F6864726D
:1021000000000000108E00087FB504460D4600BF99
:1021100000BF0121064A201D04F123038DE825009C
:102120000391044A19462046FFF748FF04B070BDEA
:102130006A8D0008648D00082DE9F04104460E46C2
:1021400017469846756800BF94F82200062804D008
:102150000D48FEF7A5FE00BFFEE700BFD8F800005F
:102160002860B8F80400A8803868C5F80600B88868
:1021700068810820A88100BF00BF31462046A269BF
:102180009047BDE8F0810000108E000870B500BFD8
:1021900000BF00243FE004EB8400204901EB8000F5
:1021A000857C35B304EB840001EB8000C07C401CCF
:1021B00004EB8401194A02EB8101C87404EB84002A
:1021C000114601EB8000C07CF0280DDA04EB84009E
:1021D00001EB8000807C01280CD104EB840001EB32
:1021E0008000C07C022805DB00BF00BF2046FFF74F
:1021F0005FFC0EE004EB8400084901EB8000807C6A
:10220000032806D1022004EB8401044A02EB810179
:102210008874601CC4B20A2CBDDB70BDE0000020D5
:102220002DE9F04706460D461746984600BF96F83A
:102230002200062804D02EA0FEF732FE00BFFEE7E3
:1022400000BF00BF00BF5DB1286848B131462868B3
:1022500000F00DFC20B9287800F0F000E02805D14E
:1022600000BF00BF6FF00D00BDE8F0874146284673
:10227000FFF7E4FA0446002C01DA2046F4E70220D6
:1022800004EB8401244A02EB8101887404EB84008E
:10229000114601EB8000866000BF00BF04EB8400A4
:1022A00001EB80003968C160B9880182002004EB2D
:1022B000840102EB8101C87404EB8400114651F8DB
:1022C000200098B104EB840051F82090002004EB2A
:1022D000840142F821003B4606F12302494630467C
:1022E000FFF72AFF484602F073FC00BF0020BBE75F
:1022F0006E657469662D3E6877616464725F6C65B3
:102300006E203D3D204554484152505F485741445E
:1023100044525F4C454E0000E00000202DE9F041A2
:1023200004460E464FF00E0860890E280BDC354837
:10233000008D401C81B233480185C08B401C81B2A6
:102340003048C18359E0656800BF00BFAF89287875
:1023500000F00100B0B12878012809D1687888B967
:10236000A8785E280ED1607B40F01000607309E011
:10237000062225492846FDF71BFF18B9607B40F06F
:1023800008006073082F03D0B7F5C16F25D117E09F
:1023900096F8290000F0200000B92EE0C8F10000F6
:1023A00001B2204602F0D0FC28B100BF17A0FEF712
:1023B00077FD00BFFEE73146204600F091FC18E0B3
:1023C00096F8290000F0200000B916E0224606F138
:1023D00023013046FFF762F90BE00A48008D401CEC
:1023E00081B208480185C08B401C81B20548C18379
:1023F00003E000BF0020BDE8F081204602F0E8FBCA
:102400000020F8E7E0D10020648D000843616E27CA
:1024100074206D6F7665206F7665722068656164E3
:10242000657220696E207061636B65740000000046
:1024300070B5044600BF24B911A0FEF731FD00BFFE
:10244000FEE700BF042001F0FDFB054625B900BFF3
:1024500000BF4FF0FF3070BDE561652084F82A00B1
:102460006E212B2001550A4860610A48A06104F1E1
:1024700023002860204601F07DFA0020EBE70000F1
:102480006E6574696620213D204E554C4C0000005D
:10249000291B0008D53900082DE9F0410446E769F9
:1024A000204601F091FA054615B90020BDE8F081FB
:1024B0006E68B08901F0A2FAB0F5006F03D0A0F603
:1024C000060068B900E000BF21462846226990470F
:1024D00028B100BF00BF284602F07AFB002504E0C7
:1024E000284602F075FB002500BF00BF0120DDE794
:1024F00070B504460D46E1B20548FEF7CBFC00BFBF
:1025000080210348FEF74CFC0028F9D0204670BD1E
:102510000038014070B505460C4622460321284686
:1025200000F0A6F970BD00002DE9FE4F0446894673
:102530009148B0F86200401C81B28F48A0F8621048
:102540006668307800074FEA9068C8F100012046BD
:1025500002F0FAFB10B92089042802D200BF00BFA4
:10256000F0E0606890F800A0606890F801B0BAF1FF
:10257000000F03D0BAF1080F7AD100E0DDE00127A7
:102580007E48007800F0F000E02800D100277B4969
:102590000868494600F06BFA00B1002777B900BF20
:1025A00000BF7548B0F87400401C81B27248A0F8B2
:1025B0007410204602F00CFBBDE8FE8F00BF00BF88
:1025C0002089082802D200BF00BFBBE0204600F0EF
:1025D000CEF968B100BF00BF204602F0F9FA6648A4
:1025E000B0F86800401C81B26348A0F86810E3E7C7
:1025F0002221204602F0A8FB00283FD04146204679
:1026000002F0A2FB28B100BF5DA0FEF749FC00BFAD
:10261000FEE721890022022001F008FF074617B9D2
:1026200000BF00BF9AE000BF798908F1080081422D
:1026300004D260A0FEF734FC00BFFEE700BF2146D5
:10264000384602F083F928B100BF68A0FEF728FCE5
:1026500000BFFEE77E68C8F1000001B2384602F014
:1026600073FB30B100BF6BA0FEF71AFC00BFFEE7A2
:1026700051E0204602F0ACFA3C460BE06FF021013D
:10268000204602F061FB28B100BF62A0FEF708FC03
:1026900000BFFEE7656839480068F0606A48006876
:1026A00030610020287068884FF6F771884203D3A4
:1026B00068880930688002E0688808306880FF20F8
:1026C0003072002070811421304600F046F970818C
:1026D0002948B0F86000401C2749A1F86000414635
:1026E000204602F031FB28B100BF58A0FEF7D8FB0E
:1026F00000BFFEE701200021FF230A46CDE90109C2
:1027000000911E49204600F05FFC07460FB100BF54
:1027100000BF00BF11E000BF00BF1748B0F8700055
:10272000401C81B21448A0F87010B0F86600401C3C
:1027300081B21148A0F8661000BF00BF204602F029
:1027400047FA39E7204602F043FA0B48B0F86A002E
:10275000401C81B20848A0F86A102DE7204602F01C
:1027600037FA0548B0F87400401C81B20248A0F85E
:10277000741000BF20E70000E0D1002050000020CE
:1027800069636D705F696E7075743A206D6F7669FC
:102790006E6720702D3E7061796C6F616420746F7C
:1027A00020697020686561646572206661696C6586
:1027B000640A0000636865636B2074686174206656
:1027C0006972737420706275662063616E20686F31
:1027D0006C64207374727563742074686520494357
:1027E0004D502068656164657200000069636D701A
:1027F0005F696E7075743A20636F7079696E6720D7
:10280000746F206E65772070627566206661696CF2
:1028100065640A0069636D705F696E7075743A2053
:10282000726573746F72696E67206F726967696E23
:10283000616C20702D3E7061796C6F6164206661FF
:10284000696C65640A0000004C00002043616E273B
:1028500074206D6F7665206F76657220686561649F
:10286000657220696E207061636B65740000000002
:102870002DE9FE4306460F46904600222421012002
:1028800001F0D4FD05461DB900BF00BFBDE8FE83C1
:1028900000BF6889242804D21FA0FEF701FB00BFF7
:1028A000FEE700BFD6F8049000BF00BF00BF00BF26
:1028B00000BF00BF00BF00BF00BF00BF6C68277033
:1028C00084F801800020A080E08071686A6802F1CD
:1028D00008001C22FDF748FC002060806989204622
:1028E00000F03BF860801748B0F86000401C1549C4
:1028F000A1F86000D9F80C00029001200021FF230C
:1029000002AACDE90010284600F028FB284602F074
:102910005FF900BFBAE70000636865636B20746805
:1029200061742066697273742070627566206361D9
:102930006E20686F6C642069636D70206D657373C1
:1029400061676500E0D1002070B505460C4622465F
:102950000B212846FFF78CFF70BD70B504460D466D
:102960002946204601F06CF8C04380B270BD2DE9C5
:10297000F041064600240027354617E0698968685B
:1029800001F05EF80444A0B200EB1444688900EB47
:10299000D0714910A0EB410139B1C7F10100C7B2B4
:1029A000E0B2C4F3072141EA00242D68002DE5D1EF
:1029B00027B1E0B2C4F3072141EA0024E04380B22A
:1029C000BDE8F0812DE9F05F0746884691469A46BA
:1029D0000024A3463D461AE000BF00BF698968682D
:1029E00001F02EF80444A0B200EB1444688900EB17
:1029F000D0714910A0EB410141B1CBF1010000F0D1
:102A0000FF0BE0B2C4F3072141EA00242D68002D3A
:102A1000E2D1BBF1000F04D0E0B2C4F3072141EAD8
:102A20000024D8F80060B0B204444FF6FF7000EA0A
:102A300016400444D9F80060B0B204444FF6FF7069
:102A400000EA16400444504600F0D8FF04440A98B7
:102A500000F0D4FF0444A0B200EB1444A0B200EB99
:102A6000144400BF00BFE04380B2BDE8F09F18B53A
:102A700002460092D04300B10AB9012018BD91F876
:102A8000290000F0020008B90020F7E748689042EA
:102A900001D10020F2E700988B681840D1E9013499
:102AA0002340984208D1886822EA00008C68E343FA
:102AB000984201D10120E1E70020DFE72DE9F74F3F
:102AC0008CB004468946B9F8200008901420049080
:102AD0004FF0000860680B900B9EF08800F0AAFF92
:102AE00003900398C0F30C000790039800F4005083
:102AF00006902089143880B209900899A1F1140039
:102B0000C11700EB5171C1F3CF010A91B1E00898F0
:102B100014380999884201DB012000E0002005906B
:102B20000798C0F30C00069908430390059818B95C
:102B3000039840F400500390059808B1099801E00B
:102B40000A98C0001FFA80FB00221421022001F025
:102B50006DFC054625B94FF0FF300FB0BDE8F08F92
:102B600000BF6089142804DA45A0FEF799F900BF78
:102B7000FEE700BF142268680B99FDF7F5FA6E684E
:102B8000616804980844606061890498081A60814B
:102B9000CDF808B03FE061890298814201DD0298DA
:102BA00000E060898046B8F1000F01D1246832E06E
:102BB00000F07AF807462FB9284602F009F84FF0DE
:102BC000FF30CAE760683B4602224146CDE9000873
:102BD000032001F0EFFD8246BAF1000F08D138461C
:102BE00000F068F8284601F0F3FF4FF0FF30B4E73B
:102BF000204602F0C7F97C612948386151462846D1
:102C000001F02EFE0298A0EB080080B2029002981C
:102C100000B1246800BF02980028BCD1CDF8108014
:102C2000039800F0EBFEF0800BF1140188B200F085
:102C3000E5FE70800020708114213046FFF78DFE84
:102C40007081D9F81430294648460E9A984715489D
:102C5000008E401C13490886284601F0B9FF0998E8
:102C6000A0EB0B0080B209900A990798084480B243
:102C70000790099800287FF44AAF00BF6DE7000075
:102C800074686973206E6565647320612070627575
:102C90006620696E206F6E6520706965636521002E
:102CA00021390008E0D1002010B5062001F05CFABF
:102CB00010BD000010B5044600BF24B905A0FEF702
:102CC000EFF800BFFEE700BF2146062001F0CCF977
:102CD00010BD00007020213D204E554C4C000000DE
:102CE0002DE9F047064689469648B0F84A00401C50
:102CF00081B29448A0F84A10756828780421B1EB95
:102D0000201F16D000BF00BF304601F061FF8D4884
:102D1000B0F85C00401C81B28A48A0F85C10B0F8A2
:102D20004E00401C81B28748A0F84E100020BDE83C
:102D3000F087287800F00F074FF6FF7000EA87074A
:102D4000688800F077FE80467089B84202DB3089DF
:102D500040451DDA7089B84201DA00BF00BF3089F2
:102D6000404501DA00BF00BF304601F031FF754831
:102D7000B0F85200401C81B27248A0F85210B0F86E
:102D80004E00401C81B26F48A0F84E100020CEE7E4
:102D900039462846FFF7E1FDA8B100BF00BF304625
:102DA00001F016FF6748B0F85000401C81B265483A
:102DB000A0F85010B0F84E00401C81B26148A0F855
:102DC0004E100020B3E74146304602F035F828693E
:102DD0005D490860E8685D4908604FF0010A4C46AB
:102DE00000BF00BF00BF94F8290000F0010088B1C7
:102DF000201D78B1606868B15348006861688842F6
:102E000005D0514908682146FFF731FE10B100BFD7
:102E100000BF0DE0BAF1000F04D04FF0000A4C489B
:102E2000046800E024684C4500D12468002CD8D107
:102E300000BF464908684946FFF719FE28B94348CC
:102E4000007800F0F000E0280ED100BF00BF30464F
:102E500001F0BEFE3B48B0F84E00401C81B239483C
:102E6000A0F84E10002062E734B900BF00BF304622
:102E700001F0AEFE00205AE7E8884FF63F710840A7
:102E800048B100BF00BF304600F068F906460EB9F1
:102E900000204CE7756800BF00BF00BF00BF2D4891
:102EA000C0F800902C4805604946304602F028F9E9
:102EB000E0BB687A01280DD0062806D011280ED173
:102EC0004946304605F00AFE2FE04946304602F0FA
:102ED0002DFE2AE049463046FFF726FB25E01A4939
:102EE00008684946FFF7C3FD50B91748007800F05D
:102EF000F000E02804D0756002213046FFF70AFB9D
:102F0000304601F065FE00BF00BF0E48B0F8580023
:102F1000401C81B20B48A0F85810B0F84E00401C7D
:102F200081B20848A0F84E1000BF00BF0020094938
:102F3000086009490860054908600349086000BF46
:102F4000F5E60000E0D10020500000204C000020F9
:102F50006C00002044000020480000202DE9FE4FB6
:102F600005460F4616469846DDE90C9A00BFE889EB
:102F7000012804D010A0FDF793FF00BFFEE700BFBB
:102F8000304600F097FC041E0CD100BF00BF0D4876
:102F9000B0F85600401C81B20A48A0F85610201F15
:102FA000BDE8FE8F4346324639462846CDE9009AB1
:102FB000029400F009F8F3E7702D3E726566203D3B
:102FC0003D203100E0D100202DE9F84F064688462B
:102FD00091469A460C9F002500BFF089012804D035
:102FE0004DA0FDF75DFF00BFFEE700BFB9F1000F88
:102FF00070D04FF0140B1421304601F0A5FE68B1DB
:1030000000BF00BF4748B0F85C00401C81B2454893
:10301000A0F85C106FF00100BDE8F88F746800BF85
:103020007089142804D240A0FDF73AFF00BFFEE7E4
:1030300000BF84F808A00B9860720B984AEA002041
:103040000544D9F800002061208A80B20544206937
:1030500005EB104558464FEAEB710BEB9171C1F34C
:10306000870141F0400121700A98607021780A9828
:1030700041EA00200544308900F0C0FC608060888F
:1030800005440020E0803448008800F0B7FCA080B0
:10309000A088054430480088401C2F490880B8F1BA
:1030A000000F02D0D8F8000010B97868E06002E0A4
:1030B000D8F80000E060A08980B20544E06805EB24
:1030C0001045A8B200EB154505EB1545ED436581AC
:1030D00004E0FFE7746820690090E9461148B0F801
:1030E0004800401C0F49A1F8480000BF00BF388CC1
:1030F00048B13089398C884205DD4A463946304628
:10310000FFF7DCFC88E700BF00BF4A46314638467F
:103110007B69984780E70000702D3E726566203D10
:103120003D203100E0D10020636865636B20746846
:1031300061742066697273742070627566206361C1
:103140006E20686F6C64207374727563742069708C
:103150005F68647200000000540000202DE9F84F01
:103160008046002000907548408E401C81B2734814
:103170004186D8F80450287800F00F001421B1EBF4
:10318000800F0AD000BF00BF6C48B0F84400401C5C
:1031900081B26A48A0F84410C2E0E88800F04AFC16
:1031A000C0F30C004FF6FF7101EAC00A688800F016
:1031B00041FC297801F00F01A0EB81001FFA80FB90
:1031C000404601F0B9FB06465D48018888190A2887
:1031D00012DD3146284600F001FB20B15848008836
:1031E00030440A2808DD00BF00BF5448808F401CCF
:1031F00081B25248818793E0524804681CE06069BC
:10320000E968884209D1A0692969884205D1A08965
:10321000A988884201D1012000E0002050B100BF00
:1032200000BF4648B0F84600401C81B24348A0F8B1
:10323000461003E000942468002CE0D100BF34B9AC
:103240003146284600F0ECF9044694B968E0E88875
:1032500000F0F0FBC0F30C0058B9E08900F0EAFB85
:10326000C0F30C0028B11422294604F10800FCF731
:103270007BFF33480088304431490880A87900F04A
:10328000200040B9A07F40F00100A0770AEB0B00BE
:10329000A08300BF00BF4146204600F055F8D0B3E0
:1032A000A08B1430A0836068406807686068456838
:1032B000142204F108012846FCF756FFA08B00F009
:1032C0009DFB68800020E880688114212846FFF774
:1032D00044FB6881D4F804800CE0D7F804906FF0C8
:1032E0001301384601F030FD3946404601F0B8FA86
:1032F000D9F80070002FF0D12046009900F066F94F
:10330000404601F019FB0E490988081A0C4908804B
:103310004046BDE8F88FFFE700BF00BF0020F8E798
:1033200000BF00BF0548C08E401C81B20348C18663
:10333000404601F04DFC0020EBE70000E0D100200A
:103340005C000020580000202DE9FC5F06460F4677
:1033500000254FF0010BD7F804A0BAF8020000F0E6
:1033600069FB9AF8001001F00F01A0EB810080B218
:103370000090BAF8060000F05DFBC0F30C004FF6B9
:10338000FF7101EAC000019000BF00BF7C6800200F
:1033900020600198A080DDE900100844E080D6F8A4
:1033A00004902EE0D9F80480A088B8F80410884270
:1033B00010DAC4F800905DB1A088E988884204DB87
:1033C000E088B8F80410884200DD92E02F6000E049
:1033D000776019E0A088B8F80410884200D188E02E
:1033E000A088B8F80610884200DA82E035B1E88893
:1033F000B8F80410884201D04FF0000BD8F80090C4
:103400004546B9F1000FCDD100BFB9F1000F1DD174
:1034100095B100BFE888A188884204DD3BA0FDF794
:103420003FFD00BFFEE700BF2F60E888A18888420B
:103430000CD04FF0000B09E000BF706820B13BA03A
:10344000FDF72EFD00BFFEE700BF7760B07F00F004
:10345000010000284BD0BBF1000F45D070684068D8
:10346000808810B14FF0000B3EE02546D4F8009064
:103470000BE0D9F80440E888A188884202D04FF0D8
:10348000000B05E02546D4F80090B9F1000FF0D10B
:1034900000BFBBF1000F27D000BF706820B931A07A
:1034A000FDF7FEFC00BFFEE700BF00BF706840688C
:1034B000A04204D12BA0FDF7F3FC00BFFEE700BF44
:1034C00000BF206820B12BA0FDF7EAFC00BFFEE79B
:1034D00000BF00BFE088B18B884204D02EA0FDF76A
:1034E000DFFC00BFFEE700BF5846BDE8FC9F0020A0
:1034F000FBE7384601F020FA33490988081A3249B7
:103500000880384601F064FB0020EEE763686563DD
:103510006B20667261676D656E747320646F6E27D1
:1035200074206F7665726C61700000006E6F2070A1
:10353000726576696F757320667261676D656E740A
:103540002C2074686973206D757374206265207413
:10355000686520666972737420667261676D656E56
:103560007421000073616E69747920636865636B10
:103570000000000076616C69646174655F64617469
:10358000616772616D3A6E6578745F70627566210D
:103590003D4E554C4C00000076616C696461746569
:1035A0005F646174616772616D3A646174616772CE
:1035B000616D20656E64213D646174616772616D47
:1035C000206C656E000000005C00002070B50446B1
:1035D0000D460B480068A04203D1094920680860E5
:1035E00009E000BF25B907A0FDF75AFC00BFFEE7C0
:1035F00000BF206828602146052000F035FD70BD21
:103600005800002073616E69747920636865636B8C
:10361000206C696E6B6564206C6973740000000037
:1036200070B505460E46052000F09EFD0446A4B97F
:103630003146284600F0D2F8B04203DB052000F006
:1036400093FD04464CB90E48808F401C81B20C4853
:10365000818700BF00BF002070BD20212046FCF7FD
:103660009CFD0320E077074800682060054804605F
:103670001422294604F10800FCF776FD2046EBE70A
:10368000E0D10020580000202DE9F047044688468C
:10369000002500BFA04504D138A0FDF701FC00BF04
:1036A000FEE700BFB8F1000F0AD000BFD8F8000055
:1036B000A04204D034A0FDF7F3FB00BFFEE700BF3B
:1036C0006068D0F80490B9F8040008BB6768D9F8BE
:1036D00000006060142204F108017868FCF744FDE2
:1036E00001213846FFF730F9384601F025F9064642
:1036F00000BFA819B0F5803F04DB28A0FDF7D0FB80
:1037000000BFFEE700BFA81985B2384601F060FA95
:10371000676819E0D7F80490BA46D9F800705046A7
:1037200001F00AF9064600BFA819B0F5803F04DB96
:103730001AA0FDF7B5FB00BFFEE700BFA81985B2D0
:10374000504601F045FA00BF002FE3D14146204624
:10375000FFF73CFF00BF19480088A84204DA18A010
:10376000FDF79EFB00BFFEE700BF14480088401B2A
:10377000124908802846BDE8F0870000707265761F
:1037800020213D2069707200707265762D3E6E6555
:103790007874203D3D20697072000000706275668B
:1037A000735F6672656564202B20636C656E203CD8
:1037B0003D20307866666666000000005C000020F0
:1037C00069705F72656173735F70627566636F7550
:1037D0006E74203E3D20636C656E00002DE9F05F45
:1037E00005468946002700BF0026B346B246194861
:1037F00004681DE06069E968884207D1A069296909
:10380000884203D1A089A988884201D0012000E024
:10381000002048B10AF1010A0EB9264604E0E07F13
:10382000F17F884200DC2646206800B1A346246868
:10383000002CDFD12EB159463046FFF725FF8046D8
:1038400047444F4502DABAF1010FCDDC3846BDE8F6
:10385000F09F00005800002010B5044600BF00BFD4
:1038600000F00AF8002203494FF47A7001F0E4FCFA
:1038700010BD00005938000870B500260C480468D7
:1038800013E0E07F002807DDE07F401EE07700BF07
:1038900000BF2646246808E000BF00BF2546246814
:1038A00031462846FFF7F0FE00BF002CE9D170BD7D
:1038B0005800002010B50246164801680FE091F844
:1038C000290000F0010048B110688B681840D1E968
:1038D00001342340984201D1084610BD09680029EF
:1038E000EDD10D48006830B10B48006890F8290010
:1038F00000F0010058B900BF00BF0848B0F85600FA
:10390000401C83B20548A0F856300020E5E7024885
:103910000068E2E76C00002070000020E0D1002089
:1039200070B505462C4600BF24B90CA0FDF7B8FAC7
:1039300000BFFEE700BF00BFAC4204D00AA0FDF705
:10394000AFFA00BFFEE700BF606910B1606901F027
:103950003FF92046FFF7AEF970BD0000706372209A
:10396000213D204E554C4C00706372203D3D20702F
:103970000000000070B50446E569062084F82200C6
:103980001048007884F823000E484178242001551F
:103990000C488178252001550A48C1782620015518
:1039A000084801792720015506484179282001550A
:1039B00040F2DC502084322084F82900014800F0D5
:1039C00045FC70BD3900002010B504462046FCF7C8
:1039D000CBFE10BD70B505460C462046FCF70EFF29
:1039E00070BD0146080601F47F4240EA022001F45E
:1039F0007F0240EA122040EA116070470146080643
:103A0000000C40EA1120704710B501F0B3FB00F044
:103A1000E5F800F061FB00F07DFC05F05DF802F0D8
:103A200083F801F07DFC10BD00B503461846FFF792
:103A3000D8FF00BD00B502461046FFF7DFFF00BD0E
:103A4000F8B505460A462B4600200090002103F0F9
:103A5000010636B1002A04DD13F8010B8DF80100D0
:103A6000521E1C4603E034F8027B3944921E012AA0
:103A7000F9DC002A02DD20788DF80000BDF8000096
:103A8000014488B200EB114188B200EB114126B12C
:103A9000C8B2C1F3072747EA002188B2F8BD000089
:103AA000FCF7F6FB04A0FDF7FBF90020FCF71CFE79
:103AB00001E001F07FFBFCE753797374656D2069C9
:103AC000732073746172740A0000000070B50546BB
:103AD00015B900BF00BF70BD00BF05F0030020B1E5
:103AE00026A0FDF7DDF900BFFEE700BF00BF2C48B0
:103AF0000068854203D32B480068854204D32AA07E
:103B0000FDF7CEF900BFFEE700BF254800688542FB
:103B100003D32448006885420AD300BF00BF284869
:103B2000B0F8B400401C81B22548A0F8B410D2E728
:103B3000A5F1080400BF207920B922A0FDF7B0F953
:103B400000BFFEE700BF00202071234800688442C8
:103B500001D221480460208811490988611A411A5C
:103B60001748B0F8AE00401A81B21548A0F8AE1060
:103B7000204601F00DFA00BFADE700006D656D5FF6
:103B8000667265653A2073616E6974792063686551
:103B9000636B20616C69676E6D656E740000000078
:103BA00060000020640000206D656D5F66726565D1
:103BB0003A206C6567616C206D656D6F72790000ED
:103BC000E0D100206D656D5F667265653A206D65B8
:103BD0006D2D3E75736564006800002000BF00BF56
:103BE000134921F00301134A1160114608684FF48C
:103BF000F04101800021418001711146096801F501
:103C0000F0410D4A11600121126811714FF4F04129
:103C1000094A12681180084A1268518005490968EA
:103C2000064A11604FF4F0420549A1F8AC207047F4
:103C3000630D002060000020640000206800002068
:103C4000E0D100202DE9F047054615B90020BDE878
:103C5000F087E81C20F0030085B20C2D00DA0C255B
:103C6000B5F5F04F01DD0020F1E7674800886749AE
:103C70000988401A86B2B5E0644800688419207942
:103C800000287DD1218806F10800081AA84277D3C0
:103C9000218806F10800091A05F11400814232D387
:103CA00006F1080028441FFA80F85848006800EB25
:103CB000080700203871208838807E80A4F80080B2
:103CC000012020713888B0F5F04F05D038884F4971
:103CD00009680844A0F8028000BF4D48B0F8AE1053
:103CE00005F10800084481B24948A0F8AE10B0F8C8
:103CF000B010B0F8AE00814204DA4548B0F8AE101A
:103D0000A0F8B0101BE00120207100BF20883F49BF
:103D10000988611A411A3E48B0F8AE00084481B2E1
:103D20003B48A0F8AE10B0F8B010B0F8AE00814239
:103D300004DA3748B0F8AE10A0F8B01000BF32482F
:103D40000068844226D13048D0F8009005E0B9F8E8
:103D500000002E49096800EB010999F8040018B128
:103D60002C4800688145F2D12748C0F8009000BF78
:103D700000682849096888420AD02348006800E0A2
:103D80002DE0007920B124A0FDF78AF800BFFEE7FE
:103D900000BF00BF00BF04F1080028441D490968A6
:103DA000884204D923A0FDF77BF800BFFEE700BFDF
:103DB00000BF04F0030020B12AA0FDF771F800BF96
:103DC000FEE700BF00BF04F0030020B131A0FDF703
:103DD00067F800BFFEE700BF04F1080037E70B48B3
:103DE0000068865BC5F5F040B0423FF745AF00BFC5
:103DF00000BF0748B0F8B200401C81B20448A0F8E8
:103E0000B210002023E700006800002060000020BE
:103E1000E0D10020640000206D656D5F6D616C6C09
:103E20006F633A20216C667265652D3E757365641B
:103E3000000000006D656D5F6D616C6C6F633A2012
:103E4000616C6C6F6361746564206D656D6F727910
:103E5000206E6F742061626F76652072616D5F65A0
:103E60006E642E006D656D5F6D616C6C6F633A20E2
:103E7000616C6C6F6361746564206D656D6F7279E0
:103E80002070726F7065726C7920616C69676E6505
:103E9000642E00006D656D5F6D616C6C6F633A2020
:103EA00073616E69747920636865636B20616C6906
:103EB000676E6D656E7400002DE9F04781460D4612
:103EC000E81C20F0030085B20C2D00DA0C25B5F5B6
:103ED000F04F02DD0020BDE8F08700BF50480068C9
:103EE000814503D34F480068814504D34EA0FCF7B9
:103EF000D7FF00BFFEE700BF49480068814503D3F4
:103F00004848006881450BD300BF00BF4C48B0F85B
:103F1000B400401C81B24A48A0F8B4104846DAE721
:103F2000A9F108083E480088A8EB00001FFA80FAB3
:103F3000B8F80000A0EB0A00083887B200BFBD4205
:103F400004DD40A0FCF7ACFF00BFFEE700BFBD42B0
:103F500001DD0020BFE7BD4201D14846BBE7B8F80C
:103F600000002F4909684418207950BB20880AF1C5
:103F7000080129448EB23B490968A14204D128496D
:103F800009683144374A1160254909688C190021B4
:103F900021712080A4F802A0A8F800602188B1F562
:103FA000F04F04D021881E4A126811444E802449E3
:103FB000B1F8AE107A1B891A8AB22149A1F8AE2055
:103FC0002BE005F11400B84227D80AF10800284474
:103FD00086B213480068841922480068844201D2DE
:103FE0002048046000202071B8F800002080A4F868
:103FF00002A0A8F800602088B0F5F04F04D0208817
:1040000007490968084446800D48B0F8AE00791B9E
:10401000401A81B20A48A0F8AE1048465BE700009B
:1040200060000020640000206D656D5F7472696D32
:104030003A206C6567616C206D656D6F7279000068
:10404000E0D100206D656D5F7472696D2063616EF3
:10405000206F6E6C7920736872696E6B206D656D70
:104060006F7279006800002070B504460D4605B9EE
:1040700070BD00BF05F0030020B10DA0FCF710FFDC
:1040800000BFFEE700BF2E46114800EB0410C088B9
:10409000401E81B20E4800EB0410C1800D4850F85C
:1040A000240030600B4840F8246000BFE0E70000C7
:1040B0006D656D705F667265653A206D656D207027
:1040C000726F7065726C7920616C69676E656400EF
:1040D00098D200207485002010B5002015E000243F
:1040E0001C4B03EB0013DC801A4B03EB00131C8109
:1040F000184B03EB00135C81174B33F81040154B42
:1041000003EB00139C80431C98B20A28E7DB134B97
:1041100023F00301002019E00023114C44F8203063
:1041200000220CE00E4B53F820300B600C4B43F890
:1041300020100C4B33F810301944531C9AB2064B24
:1041400033F810309342EDDC431C98B20A28E3DBCD
:1041500010BD000098D20020848D00089F850020AB
:1041600074850020708D000870B5044600BF0A2CCD
:1041700004DB23A0FCF794FE002070BD00BF28489C
:1041800050F82450002D2CD02549286841F82400EF
:1041900000BF244800EB0410C088401C81B22148B5
:1041A00000EB0410C1801F4800EB041001891D487A
:1041B00000EB0410C088814207DA1A4800EB0410B3
:1041C000C188184800EB0410018100BF00BF05F052
:1041D000030020B114A0FCF763FE00BFFEE700BFA0
:1041E0000BE000BF00BF0F4800EB04104089401CEB
:1041F00081B20C4800EB041041812846BDE7000065
:104200006D656D705F6D616C6C6F633A2074797071
:1042100065203C204D454D505F4D41580000000049
:104220007485002098D200206D656D705F6D616CA3
:104230006C6F633A206D656D702070726F7065727F
:104240006C7920616C69676E6564000010B5044686
:104250002046FCF7B5FF40F276411420FDF75AF9ED
:104260000220FDF713FA10BD2DE9F04704460E4673
:1042700017469846DDE9095ADDF8209000BF25B9B8
:104280001CA0FCF70DFE00BFFEE700BF0020606031
:10429000A060E06084F82900C4F81C901B480078F6
:1042A00084F82C0019480078401C18490870C4F89C
:1042B00010A043463A463146204600F02CF82046EE
:1042C000A84710B10020BDE8F087114800682060C1
:1042D0000F48046000BF00BF00BF00BF00BF00BFA9
:1042E00000BF00BF00BF00BF00BF00BF00BF00BFD6
:1042F0002046E8E74E6F20696E69742066756E632C
:1043000074696F6E20676976656E00007400002026
:104310006C00002070472DE9F04106460F46144618
:104320001D463946304600F01BF82146304600F065
:1043300059F82946304600F00BF8BDE8F08100003E
:104340000249086000BF00BF7047000070000020F5
:1043500009B9002200E00A68C26000BF00BF7047D0
:104360002DE9F04107460C46002C2ED020687968D4
:10437000884201D1012000E0002030BB00BF00BF17
:10438000164806680DE030687968884208D1D6F88A
:104390000C8000BF00BF304601F04EF8464600E0FA
:1043A000F668002EEFD10E4805680CE055B128687C
:1043B00040B128687968884204D10CB9002000E037
:1043C00020682860ED68002DF0D10CB9002000E0D5
:1043D0002068786000BF00BFBDE8F0818C0000203D
:1043E0008800002009B9002200E00A68826000BF4E
:1043F00000BF704710B5044694F8290000F0010092
:1044000090B914F8290F40F00100207014F8290920
:1044100000F0100040B194F8290000F0200018B11D
:10442000211D2046FDF770FE10BD00002DE9F05F54
:1044300083460F46914600BF00BFBBF1000F09D075
:10444000BBF1010F08D0BBF1020F07D0BBF1030F86
:1044500008D105E036260BE0222609E00E2607E00B
:10446000002605E000BF83A0FCF71AFD00BFFEE7B1
:1044700000BFB9F1000F76D0B9F1010F74D0B9F1D6
:10448000020F72D0B9F1030F70D10920FFF76CFE53
:10449000044600BF00BF24B900F0C8FC0020BDE8FE
:1044A000F09F84F80C900020206006F1100020445A
:1044B000C01C20F00300606000BF207900F0030002
:1044C00020B173A0FCF7ECFC00BFFEE700BF278122
:1044D000F01C20F00300C0F58460B84201DD3846CE
:1044E00004E0F01C20F00300C0F58460608100BF90
:1044F00061896068014404F58660814204D970A036
:10450000FCF7CEFC00BFFEE700BF00BFF01C20F0B0
:104510000300C0F58460002804DC76A0FCF7C0FC32
:1045200000BFFEE700BF0120E081A2466089A7EB43
:10453000000851E00920FFF717FE054635B900F0E5
:1045400075FC204600F044FB0020A8E785F80C909D
:10455000002068732860CAF8005000BF4FF6FF7053
:10456000804509DB03E03BE062E062E072E06EA0C0
:10457000FCF796FC00BFFEE700BFA5F808801FFA15
:1045800088F0B0F5846F02DA1FFA88F001E04FF48A
:104590008460688105F11000686000BF287900F030
:1045A000030020B165A0FCF77BFC00BFFEE700BF65
:1045B00000BF61896068014404F58660814204D9C6
:1045C0003FA0FCF76DFC00BFFEE700BF0120E881C3
:1045D0006889A8EB0008AA46B8F1000FAADC3FE002
:1045E00006F1130121F00302F91C21F0030111442B
:1045F00088B2FFF727FB04460CB900204FE704F10F
:1046000010003044C01C20F00300606027816781E7
:104610000020206084F80C9000BF207900F0030097
:1046200020B152A0FCF73CFC00BFFEE700BF17E042
:1046300000BF0820FFF798FD04461CB900BF00BF6B
:1046400000202CE70020606027816781206084F8CB
:104650000C9005E000BF50A0FCF722FC00BFFEE775
:1046600000BF0120E0810020607300BF00BF204632
:1046700015E70000706275665F616C6C6F633A20CD
:104680006261642070627566206C617965720000F9
:10469000706275665F616C6C6F633A2070627566FC
:1046A00020702D3E7061796C6F61642070726F7044
:1046B00065726C7920616C69676E6564000000004A
:1046C000636865636B20702D3E7061796C6F616407
:1046D000202B20702D3E6C656E20646F6573206EFC
:1046E0006F74206F766572666C6F77207062756686
:1046F00000000000504255465F504F4F4C5F4255FE
:104700004653495A45206D7573742062652062696D
:1047100067676572207468616E204D454D5F414C3E
:1047200049474E4D454E540072656D5F6C656E2075
:104730003C206D61785F7531365F7400706275661C
:104740005F616C6C6F633A207062756620712D3EFC
:104750007061796C6F61642070726F7065726C79D2
:1047600020616C69676E65640000000070627566A8
:104770005F616C6C6F633A20706275662D3E70618C
:10478000796C6F61642070726F7065726C792061F2
:104790006C69676E65640000706275665F616C6C61
:1047A0006F633A206572726F6E656F7573207479EE
:1047B000706500002DE9F04707460E4690461C46FE
:1047C000DDE9089A00BF00BF37B1012F06D0022FE4
:1047D00006D0032F08D105E036250BE0222509E09D
:1047E0000E2507E0002505E000BF14A0FCF758FBEC
:1047F00000BFFEE700BFE81C20F003003044504536
:1048000004DD00BF00BF0020BDE8F087002020606D
:10481000B9F1000F05D0E81C20F0030048446060A7
:1048200001E000206060022060732681668184F8C8
:104830000C800120E0812046E6E70000706275668A
:104840005F616C6C6F6365645F637573746F6D3A01
:10485000206261642070627566206C617965720007
:1048600070B506460D4600BF06B11DB914A0FCF791
:1048700017FB70BD00BF344604E020892989084435
:104880002081246820680028F7D100BF2089618931
:10489000884204D018A0FCF703FB00BFFEE700BF6E
:1048A00000BF206820B120A0FCF7FAFA00BFFEE7A5
:1048B00000BF2089298908442081256000BFD8E7EE
:1048C000286820213D204E554C4C292026262028A2
:1048D0007420213D204E554C4C29202870726F6762
:1048E00072616D6D65722076696F6C61746573209D
:1048F0004150492900000000702D3E746F745F6CB8
:10490000656E203D3D20702D3E6C656E20286F66E3
:10491000206C617374207062756620696E20636814
:1049200061696E2900000000702D3E6E657874206C
:104930003D3D204E554C4C000146002002E0421CFB
:10494000D0B209680029FAD1704700002DE9F04182
:1049500005460C460026002700BF00BF00BF25B15A
:104960001CB128892189884206DA38A0FCF798FA18
:104970006FF00D00BDE8F08100BF00BF6889801BAB
:104980006189C91B884204DB6089C01B1FFA80F85B
:1049900003E06889801B1FFA80F86268D1196A6891
:1049A00090194246FBF7E0FB06EB080086B207EBE6
:1049B000080087B200BF6889B04204DA2FA0FCF774
:1049C0006FFA00BFFEE700BF00BF6089B84204DA9B
:1049D00030A0FCF765FA00BFFEE700BF6089B8426F
:1049E00001DC002724686889B0420BD100262D68BD
:1049F00000BF35B92CB12EA0FCF752FA6FF00D00B4
:104A0000B8E700BF6CB160892189884209D100BF35
:104A1000206828B12AA0FCF743FA6FF00500A9E747
:104A200000BF6DB168892989884209D100BF286813
:104A300028B123A0FCF734FA6FF005009AE700BF15
:104A4000002C9BD100BF00BF002093E77062756609
:104A50005F636F70793A20746172676574206E6F5E
:104A6000742062696720656E6F75676820746F20B7
:104A7000686F6C6420736F75726365006F66667330
:104A800065745F746F203C3D20705F746F2D3E6CC9
:104A9000656E00006F66667365745F66726F6D2089
:104AA0003C3D20705F66726F6D2D3E6C656E000040
:104AB000705F746F20213D204E554C4C000000006B
:104AC000706275665F636F7079282920646F657303
:104AD000206E6F7420616C6C6F77207061636B6502
:104AE0007420717565756573210A00002DE9F05F0A
:104AF0008046894616461D464FF0000B00BFB8F1B0
:104B0000000F05D121A0FCF7CBF90020BDE8F09FF4
:104B100000BF00BFB9F1000F04D124A0FCF7C0F919
:104B20000020F3E700BF4FF0000AB8F1000F02D0F9
:104B3000B9F1000F01D10020E8E7444620E035B18B
:104B40006089A84203DC6089281A85B217E0608971
:104B5000401B87B2B74200DD37466268511909EB46
:104B60000A003A46FBF700FB0BEB07001FFA80FB3D
:104B70000AEB07001FFA80FAF01B86B200252468B2
:104B80000EB1002CDBD15846C0E70000706275669C
:104B90005F636F70795F7061727469616C3A2069EC
:104BA0006E76616C6964206275660000706275667D
:104BB0005F636F70795F7061727469616C3A2069CC
:104BC0006E76616C69642064617461707472000057
:104BD0002DE9F047044664B900BF24B935A0FCF7BD
:104BE0005FF900BFFEE700BF00BF00BF0020BDE8C7
:104BF000F08700BF00BF00BF207B68B1207B012889
:104C00000AD0207B022807D0207B032804D02CA0C8
:104C1000FCF746F900BFFEE700BF002645E000BFF5
:104C2000E089002804DC2CA0FCF73AF900BFFEE77D
:104C300000BFE089401E1FFA80F8A4F80E80B8F18A
:104C4000000F2ED1276800BF00BF257B607B00F0DE
:104C5000020078B1A14600BFD9F8100020B924A005
:104C6000FCF71EF900BFFEE700BF2046D9F8101080
:104C7000884712E0032D04D121460920FFF7F4F9FB
:104C80000BE0012D01D0022D04D121460820FFF7B1
:104C9000EBF902E02046FEF719FF701CC6B23C4655
:104CA00002E000BF00BF002400BF002CB7D1304697
:104CB0009DE700007020213D204E554C4C00000027
:104CC000706275665F667265653A2073616E652015
:104CD0007479706500000000706275665F667265C9
:104CE000653A20702D3E726566203E20300000003F
:104CF00070632D3E637573746F6D5F667265655F7B
:104D000066756E6374696F6E20213D204E554C4C64
:104D10000000000010B50020094908700948046827
:104D20000AE0606F38B100BF00BF606F03F06AFA3D
:104D30000020606710BDE468002CF2D100BFF9E7E5
:104D4000750000208C0000202DE9F04104460D463E
:104D500000BF24B926A0FCF7A3F800BFFEE700BF00
:104D600005B114B90020BDE8F081002D0BDA6842CE
:104D700087B200BF6089B84204DA20A0FCF790F83F
:104D80000120F0E700E0AFB2267BD4F804800EB13A
:104D9000032E0DD16068401B606004F11000616853
:104DA00081421AD200BF00BFC4F804800120DAE7B4
:104DB000022E01D0012E0AD1002D06DA6089B842F8
:104DC00003DB6068401B606007E00120CBE700BFA9
:104DD00012A0FCF765F800BFFEE7608928446081F7
:104DE00020892844208100BF00BF0020BBE70000CD
:104DF0007020213D204E554C4C000000696E6372BE
:104E0000656D656E745F6D61676E6974756465204C
:104E10003C3D20702D3E6C656E0000006261642098
:104E20007062756620747970650000000120014988
:104E300008707047750000202DE9F04105460F46C7
:104E400000BF25B930A0FCF72BF800BFFEE700BF7C
:104E500000BF287B03280CD0287B012809D0287BA1
:104E600038B1287B022804D02DA0FCF719F800BF28
:104E7000FEE700BF2889B84201DCBDE8F08128893F
:104E8000A7EB00083E462C4619E06089301A86B22E
:104E900000BF4FF6FF70804504DB28A0FCF700F848
:104EA00000BFFEE700BF208940442081246800BF86
:104EB00024B927A0FBF7F4FF00BFFEE700BF60891D
:104EC000B042E2DB207B90B96089B0420FD0A0886D
:104ED000001B304481B22046FEF7EEFF044600BFBF
:104EE00024B921A0FBF7DCFF00BFFEE700BF66810D
:104EF00060892081206810B12068FFF769FE0020DA
:104F0000206000BFB9E70000706275665F7265617E
:104F10006C6C6F633A207020213D204E554C4C0044
:104F2000706275665F7265616C6C6F633A20736165
:104F30006E6520702D3E74797065000067726F7722
:104F4000203C206D61785F7531365F740000000091
:104F5000706275665F7265616C6C6F633A20712078
:104F6000213D204E554C4C006D656D5F7472696D2E
:104F70002072657475726E65642071203D3D204E0F
:104F8000554C4C0010B1C189491CC18170470000CB
:104F900070B5044600BF2F480068844204D22EA09A
:104FA000FBF77EFF00BFFEE700BF00BF3048006890
:104FB000844204D32FA0FBF773FF00BFFEE700BFBE
:104FC00000BF207920B132A0FBF76AFF00BFFEE7E7
:104FD00000BF00BF2088B0F5F04F04DD33A0FBF721
:104FE0005FFF00BFFEE700BF20881A490968451827
:104FF000AC4215D0287998B91D48006885420FD079
:1050000035480068A84201D13348046028882080D0
:1050100010480088201A29880E4A126811444880D6
:1050200060880C4909684618A64211D0307978B9D1
:1050300029480068A04201D12748066020883080B6
:1050400004480088301A2188024A126811444880B6
:1050500070BD000060000020706C75675F686F6C49
:1050600065733A206D656D203E3D2072616D0000D4
:1050700064000020706C75675F686F6C65733A2020
:105080006D656D203C2072616D5F656E640000008F
:10509000706C75675F686F6C65733A206D656D2D18
:1050A0003E75736564203D3D20300000706C75676F
:1050B0005F686F6C65733A206D656D2D3E6E657827
:1050C00074203C3D204D454D5F53495A455F414C4E
:1050D00049474E45440000006800002010B50024F8
:1050E00000BF0648FDF7D8F90446002CF9D140224C
:1050F0001C21A020FCF7AEFA10BD00004CD300200C
:105100002DE9F04705468A460027D5F8048098F82F
:1051100009900026144804681FE0207C48451AD1F5
:1051200034B1206820B1114920680968884212D141
:10513000606980B10E4B2A462146D4E905C0E0479C
:1051400048B10025012736B1E068F06006480068E4
:10515000E060054804602646E4680FB9002CDCD105
:105160003846BDE8F087000078000020500000209D
:105170004C00002010B58AB028220B496846FAF787
:10518000F3FF002406E05DF82410084800EB04104B
:105190000160641C0A2CF6DB05A00449B839C1F88B
:1051A000A8000AB010BD0000988D000898D2002019
:1051B0004D454D002DE9F0471948006868B300F0EF
:1051C00035F8804617480068A8EB000600BF00BF0E
:1051D0001548007808B1FFF79DFD00BF4FF00009AA
:1051E0000F480468ACB16068B04212D84FF00109B2
:1051F0000C48C0F800806068361A094920680860C9
:10520000A568E76821460720FEF72EFF0DB1384656
:10521000A847B9F1000FDAD100BFBDE8F087000060
:10522000C0000020C4000020750000200148006874
:1052300070470000400000202DE9F04106460F466F
:1052400090460720FEF790FF04464CB900BF24B9F2
:1052500022A0FBF725FE00BFFEE700BFBDE8F081FE
:1052600000202060A760C4F80C8066602B480068AE
:1052700010B92A480460F1E7284800684068B04245
:105280000CD9264800684068801B2449096848609A
:10529000224800682060214804601DE01F4805681E
:1052A00017E060686968401A6060286820B1286863
:1052B0004068616888420BD9286828B1286840682E
:1052C0006168401A29684860286820602C6002E004
:1052D0002D68002DE5D100BF00BFBFE77379735F74
:1052E00074696D656F75743A2074696D656F757456
:1052F00020213D204E554C4C2C20706F6F6C204D62
:10530000454D505F5359535F54494D454F555420B7
:10531000697320656D70747900000000C000002082
:1053200010B5002207494FF47A70FFF785FF00227D
:10533000054941F28830FFF77FFFFFF777FF034908
:10534000086010BD59380008A1110008C4000020F1
:105350002DE9FC4704460E4600BF207E012804D1FB
:1053600025A0FBF79DFD00BFFEE700BF207E0A28B9
:1053700008D121462D4801F061FB21460220FEF7AD
:1053800073FE36E0276DD4F82880D4F88C50D4F81A
:10539000109000BF2146264801F050FB012025490E
:1053A000087000BF206F10B1206F02F02BFFE06E7D
:1053B00010B1E06E02F026FF606F10B1606F02F076
:1053C00021FF5EB100BF00BFA08B618B231D224671
:1053D000CDE900104146384602F080FE2146022009
:1053E000FEF742FE00BF1DB16FF009014846A84715
:1053F00000BFBDE8FC870000646F6E277420636106
:105400006C6C207463705F61626F72742F74637070
:105410005F6162616E646F6E20666F72206C69738B
:1054200074656E2D706362730000000090000020B0
:105430008C0000209800002010B504460121204671
:10544000FFF786FF10BD000070B506460220FEF78C
:105450008BFE04461CBB00BF00BF00F045FF0220CE
:10546000FEF782FE04468CB900BF00BF304600F054
:105470000FFF0220FEF778FE04463CB12748B0F843
:10548000E200401E81B22548A0F8E2103CB123485A
:10549000B0F8E200401E81B22048A0F8E210002CD3
:1054A0003AD098212046FAF778FE143466714FF40A
:1054B0007A60A4F852000020A4F854004FF47A60F7
:1054C00020836083002004F80B0CFF2004F80A0CF2
:1054D0004FF406706084062020860020A0850620F8
:1054E000E085C01F20840120208700F0C5FF05460D
:1054F0006564E5636563A56409480068206109483F
:10550000007860730020E0720748E0660748E067B3
:10551000002084F88200143C204670BDE0D10020B9
:10552000800000209A000020E57E000800DD6D006C
:1055300010B50446207E012803D0A07F40F0100063
:10554000A0770121204600F001F810BD7CB504468B
:105550000E46002E63D0207E042802D0207E07282D
:105560005DD1A06F18B9A08DB0F57A6F57D000BF8C
:10557000A07F00F0100020B964A0FBF791FC00BFF1
:10558000FEE700BFA08B618BCDE90010231D2246F2
:10559000A16A206D02F0A2FD204601F019FA00BFB9
:1055A00000BF61480068A04205D15F480068C0683C
:1055B0005D49086018E05C4800685C4908600EE0DE
:1055C0005A480068C068A04204D15849E068096898
:1055D000C86008E055480068C068544908605348EE
:1055E00000680028ECD100BF0020E06000BF01206F
:1055F0004F49087000BF207E04280AD10A20207677
:1056000000BF4C480068E0604A48046003F01AF9A3
:1056100003E021460220FEF727FD00207CBD207E0E
:10562000082868D2DFE800F004343F4F5767675F0F
:105630000025608B30B300BF3F480068A04205D111
:105640003D480068C0683C49086018E03A48006876
:10565000364908600EE035480068C068A04204D1B1
:105660003249E0680968C86008E030480068C068EE
:105670002E4908602D4800680028ECD100BF0020AA
:10568000E06000BF21460220FEF7EEFC002435E07A
:1056900000252146294801F0D1F921460320FEF7D3
:1056A000E3FC00242AE0002500BF21461E4801F04B
:1056B000C5F901201E49087000BF21460220FEF7EF
:1056C000D3FC00241AE0204602F0DCFD05460DB9AB
:1056D0000520207612E0204602F0D4FD05460DB9E3
:1056E000052020760AE0204602F0CCFD05460DB9E3
:1056F0000920207602E00025002400BF00BF1CB175
:1057000015B9204600F00EFF284687E77063622D2A
:105710003E666C61677320262054465F5258434CA6
:105720004F534544000000008C00002094000020EE
:1057300098000020900000208400002088000020B5
:105740002DE9F05F07460E4691469A46DDF828801F
:1057500008F0010008B1042000E0002008F0020178
:1057600009B10C2100E0002145180420FEF7FCFCE3
:10577000041E07D100BF00BF3046FFF729FA002002
:10578000BDE8F09F84F80C800020206066603089BE
:10579000401B20810020608114213046FFF7D4FA9D
:1057A00070B100BF00BF1848B0F8A400401C81B21F
:1057B0001548A0F8A410204602F017FD0020DFE7EE
:1057C000606840682061788BFEF718F921690880CD
:1057D000B88BFEF713F9216948805046FEF701F9AE
:1057E00021694860AB46E91705EB91718910491DA5
:1057F00049EA013188B2FEF701F921698881002068
:10580000216948822046BBE7E0D100202DE9F04124
:1058100005460E463046FEF74DF8044654B1208C3E
:1058200040B1208C283887B2BD4201DA284600E01A
:10583000384605462846BDE8F08100002DE9F843CA
:1058400004460D464FF00008C14600BF00BF00BF30
:1058500005F0030020B96848FBF722FB00BFFEE714
:1058600000BFB4F86800102805DAB4F868004FF6F5
:10587000FC71884211D900BF00BF6048B0F89C009D
:10588000401C81B25D48A0F89C10A07F40F08000D1
:10589000A0774FF0FF30BDE8F88305F0020008B1B3
:1058A0004FF0010808F0010008B1042000E00020DA
:1058B00008F0020109B10C2100E0002100EB010910
:1058C000B4F8660060B900BF00BF4C48B0F89C0057
:1058D000401C81B24948A0F89C104FF0FF30DAE735
:1058E000002249461046FEF7A1FD071E0DD1A07FFC
:1058F00040F08000A0774148B0F89C00401C81B285
:105900003E48A0F89C10781EC5E700BF788948453E
:1059100004DA3BA0FBF7C4FA00BFFEE700BFCDF8F6
:1059200000802A4639462046E36DFFF709FF061E30
:105930000DD1A07F40F08000A0773048B0F89C00E7
:10594000401C81B22D48A0F89C10701EA3E700BF38
:10595000307C00F0030020B138A0FBF7A1FA00BFB3
:10596000FEE700BF00BF308920B13AA0FBF798FAEC
:1059700000BFFEE700BF00BF00BFE06E08B9E666EB
:1059800007E0E06E00E0006801680029FBD10660D6
:1059900000BF0020A4F86A0005F0020010B905F06D
:1059A000010038B1E06D401CE065B4F86600401EAF
:1059B000A4F8660005F0010018B1A07F40F02000B7
:1059C000A0777068FEF7B8FFB4F868100844A4F830
:1059D000680000BF00BFB4F8680050B100BF206F7E
:1059E00030B9E06E20B926A0FBF75AFA00BFFEE7F7
:1059F00000BF00204FE70000348F0008E0D10020F6
:105A00007463705F656E71756575655F666C6167FF
:105A1000733A20636865636B2074686174206669FB
:105A200072737420706275662063616E20686F6C9B
:105A300064206F70746C656E000000007365672DE4
:105A40003E746370686472206E6F7420616C696765
:105A50006E6564007463705F656E71756575655F12
:105A6000666C6167733A20696E76616C6964207355
:105A700065676D656E74206C656E67746800000004
:105A80007463705F656E71756575655F666C61677F
:105A9000733A20696E76616C69642071756575650D
:105AA000206C656E6774680070B51C480078401CF7
:105AB0001A49087000BF1A4804682BE094F82100C6
:105AC00016490978884225D01448007884F82100C6
:105AD000A07F00F0010070B100BF00BF00BFA07F39
