:020000040800F2
:100000003804002045010008890400081B0400088A
:10001000850400083F020008C50800080000000031
:100020000000000000000000000000008105000842
:10003000C5020008000000008B0400086D060008DF
:100040005F0100085F0100085F0100085F01000810
:100050005F0100085F0100085F0100085F01000800
:100060005F0100085F0100085F0100085F010008F0
:100070005F0100085F0100085F0100085F010008E0
:100080005F0100085F0100085F0100085F010008D0
:100090005F0100085F0100085F0100085F010008C0
:1000A0005F0100085F0100085F0100085F010008B0
:1000B0004D0700085F0100085F0100085F010008AC
:1000C0005F0100085F0100085F0100085F01000890
:1000D0005F0100085F0100085F0100085F01000880
:1000E0005F0100085F0100085F0100085F01000870
:1000F0005F0100085F0100085F0100085F01000860
:100100005F0100085F0100085F0100085F0100084F
:100110005F0100085F0100085F0100085F0100083F
:100120005F0100085F0100085F0100085F0100082F
:10013000DFF80CD000F04AF800480047ED0B00084B
:10014000380400200648804706480047FEE7FEE7DF
:10015000FEE7FEE7FEE7FEE7FEE7FEE7FEE7FEE777
:10016000ED060008310100082DE9F05F054600208A
:1001700092469B4688460646814640241BE0284618
:1001800041464746224600F042F853465A46C01AB6
:10019000914110D311461846224600F029F82D1A35
:1001A00067EB01084F4622460120002100F020F8AD
:1001B00017EB00094E41201EA4F10104DFDC484684
:1001C00031462A464346BDE8F09F0000064C074DE5
:1001D00006E0E06840F0010394E807009847103417
:1001E000AC42F6D3FFF7A8FF300C0008500C000813
:1001F000202A04DB203A00FA02F1002070479140E7
:10020000C2F1200320FA03F3194390407047202ADB
:1002100004DB203A21FA02F00021704721FA02F3B0
:10022000D040C2F12002914008431946704710B5F2
:1002300000F0F6F800F01EFA00F004F810BD00BF60
:10024000FEE7000000B585B00121880300F01EF92B
:100250000121052000F01AF94FF40070ADF81000EC
:1002600018208DF8130003208DF8120004A91348FC
:1002700000F046F84FF48060ADF8100004208DF8CF
:10028000130004A90D4800F03BF84FF4E130009052
:100290000020ADF80400ADF80600ADF80800ADF898
:1002A0000C000C20ADF80A006946054800F09AFAE7
:1002B0000121034800F07CFA05B000BD00080140B0
:1002C000003801407047000001B50C4900980860F3
:1002D0004FF0E020006940F001004FF0E02108619C
:1002E00000BF064800680028FBD14FF0E0200069FD
:1002F00020F001004FF0E021086108BD2C00002033
:100300002DE9F041024600250026002000230024AC
:10031000002791F803C00CF00F0591F803C00CF012
:10032000100CBCF1000F03D091F802C04CEA050597
:1003300091F800C0BCF1000F31D0146800202BE010
:100340004FF0010C0CFA00F3B1F800C00CEA030600
:100350009E4220D183004FF00F0C0CFA03F7BC43F0
:1003600005FA03FC4CEA040491F803C0BCF1280F21
:1003700006D14FF0010C0CFA00FCC2F814C00AE0E0
:1003800091F803C0BCF1480F05D14FF0010C0CFAF5
:1003900000FCC2F810C0401C0828D1D31460B1F88A
:1003A00000C0BCF1FF0F34DD546800202EE000F1E6
:1003B000080C4FF0010808FA0CF3B1F800C00CEA81
:1003C00003069E4221D183004FF00F0C0CFA03F775
:1003D000BC4305FA03FC4CEA040491F803C0BCF1E9
:1003E000280F05D100F1080C08FA0CF8C2F81480A7
:1003F00091F803C0BCF1480F07D100F1080C4FF091
:10040000010808FA0CF8C2F81080401C0828CED366
:100410005460BDE8F0814161704700BFFEE7000015
:1004200008B501214FF4847000F030F80120ADF8D8
:10043000000003208DF8020010208DF803006946AB
:100440000E48FFF75DFF4020ADF8000069460C48FC
:10045000FFF756FF8020ADF8000069460848FFF717
:100460004FFF01210548FFF7D6FF40210448FFF761
:10047000D2FF80210248FFF7CEFF08BD000C0140EB
:100480000020014000BFFEE77047704729B1064ACF
:1004900092690243044B9A6104E0034A92698243E1
:1004A000014B9A61704700000010024030B50021F6
:1004B0000022002400232D4D6D6805F00C0121B1B0
:1004C000042905D0082923D105E0294D056022E043
:1004D000274D05601FE0254D6D6805F47012234D12
:1004E0006D6805F48034022505EB92421CB9214D5C
:1004F000554305600BE01D4D6D6805F400351DB1D9
:100500001C4D5543056002E0194D5543056002E05E
:10051000174D056000BF00BF144D6D6805F0F00178
:100520000909154D6B5C0568DD4045600F4D6D6830
:1005300005F4E061090A104D6B5C4568DD4085609B
:100540000A4D6D6805F46051C90A0B4D6B5C456836
:10055000DD40C560054D6D6805F44041890B074DD0
:100560006B5CC568B5FBF3F5056130BD001002405A
:1005700000127A0000093D00140000202400002031
:10058000704710B500F002F810BD00000CB5002057
:10059000019000903348006840F480303149086091
:1005A00000BF3048006800F4003000900198401C03
:1005B0000190009818B90198B0F5A06FF1D12948C1
:1005C000006800F4003010B10120009001E000202C
:1005D00000900098012843D12348006840F01000A3
:1005E000214908600846006820F0030008600846BA
:1005F000006840F0020008601A48406819494860E5
:100600000846406848600846406840F4806048609A
:100610000846406820F47C1048600846406840F472
:10062000E81048600846006840F08070086000BF2D
:100630000C48006800F000700028F9D009484068B4
:1006400020F00300074948600846406840F0020077
:10065000486000BF0348406800F00C000828F9D14A
:100660000CBD0000001002400020024010B500F058
:1006700093F810BD30B51A4800684FF47A72B0FB99
:10068000F2F1B1F1807F01D301201DE021F07F4024
:10069000401E4FF0E022506150170F22002807DA69
:1006A00013071D0E0F4B00F00F04241F1D5503E010
:1006B00013071C0E0C4B1C5400BF00204FF0E0220F
:1006C000906107201061002008B100BFFEE74FF0E5
:1006D000E020006920F001004FF0E021086130BD0A
:1006E0000000002018ED00E000E400E010B5134821
:1006F000006840F001001149086008464068104950
:1007000008400E494860084600680E4908400B49F9
:1007100008600846006820F48020086008464068A9
:1007200020F4FE0048604FF41F008860FFF729FFA7
:100730004FF000600449086010BD00000010024046
:100740000000FFF8FFFFF6FE08ED00E010B5012104
:10075000880700F010F840B104480088401C0349A5
:1007600008800121880700F003F810BD2800002050
:10077000CA430282704730B502460020002300249D
:10078000158A05EA0103958905EA010413B10CB144
:10079000012000E0002030BD0448006820B103487B
:1007A0000068401E01490860704700002C000020CE
:1007B00021B1828942F40052828104E082894DF69F
:1007C000FF731A408281704702460020B1F5007F16
:1007D00000D100BF13880B400BB1012000E00020C6
:1007E000704700002DE9F04786B005460E4600240C
:1007F000A24600BFA1460027B08900B100BF2F4626
:100800002C8A4CF6FF700440F08804432C82AC899B
:100810004EF6F3100440B0883189084371890843CB
:100820000443AC81AC8A4FF6FF400440B0890443D6
:10083000AC8201A8FFF73AFE1F48874202D1DDF8DB
:1008400010A001E0DDF80CA0A88900F4004040B140
:100850000AEBCA0000EB0A1031684900B0FBF1F85E
:1008600007E00AEBCA0000EB0A1031688900B0FB10
:10087000F1F86420B8FBF0F004012009642101FBC9
:100880001089A88900F4004040B1322000EBC90073
:10089000B0FBF1F000F00700044308E0322000EB69
:1008A00009106421B0FBF1F000F00F0004432C812B
:1008B00006B0BDE8F087000000380140C1F308022F
:1008C0008280704700BFFEE70FB4054B10B503A947
:1008D000044A029800F018F810BC5DF814FB000000
:1008E000C90B00083400002002E008C8121F08C12C
:1008F000002AFAD170477047002001E001C1121FA1
:10090000002AFBD1704700002DE9FF4F8DB09B46B8
:100910000F460446002606E025280BD05A460F99BC
:100920009047641C761C20780028F5D111B0304621
:10093000BDE8F08F0025A8460122984900E0054354
:1009400014F8013F203B02FA03F00842F7D1207867
:100950002E2817D114F8010F45F004052A280ED0CF
:100960006FF02F022078A0F1300109290AD808EB96
:10097000880102EB410100EB0108641CF2E757F823
:10098000048B641C20786C280DD004DC4C2812D019
:100990006A2811D104E074280DD07A280CD10AE01D
:1009A00045F4001507E0617845F48015814202D1D5
:1009B000641C05F58015641C2278692A45D008DC82
:1009C000002AB3D0582A69D0632A10D0642A08D1EB
:1009D0003BE0702A67D0732A13D0752A5CD0782A3E
:1009E0005CD010465A460F999047761CD3E017F812
:1009F000040B8DF8000000208DF80100E94601206D
:100A000003E057F8049B4FF0FF3069074FF00005F3
:100A100001D40AE06D1C45450DDA8542FADB19F870
:100A200005100029F6D106E06D1C8542FCDB19F8A3
:100A300005100029F8D12E4404E019F8010B5A469C
:100A40000F9990476D1EF8D2A5E00A200021CDE94C
:100A50000801C5F3025002280DD001CFC117031EB3
:100A600071F100030DDA4FF0000CD0EB0C006CEBD1
:100A700001012D2308E0FF1D27F00707F7E8020119
:100A8000EDE72B0504D52B238DF8283001233BE01F
:100A9000EB0739D02023F7E70A2000E010200021DF
:100AA000CDE9080107E01020002145F00405CDE95B
:100AB00008014FF00808C5F3025002280FD001CFFB
:100AC00000214FF0000A2B071FD5702A0DD0DDE959
:100AD00008C38CF0100C5CEA030C0CD015E0FF1D71
:100AE00027F00707F7E80201EBE740228DF82820FE
:100AF0004FF0010A0BE050EA010306D030238DF8D5
:100B000028308DF8292002239A46582A04D024A29E
:100B10000DF120090B9209E026A2F9E7DDE908238F
:100B2000FFF722FB0B9B9B5C09F8013D50EA010299
:100B3000F4D1ADEB090020300890680701D44FF0E4
:100B400001080899884502DDA8EB010000E00020BB
:100B50008046002506E00AA85A46405D0F99904756
:100B60006D1C761C5545F6DB04E030205A460F9983
:100B70009047761CB8F10001A8F10108F5DC05E00A
:100B800019F8010B5A460F999047761C0899481E90
:100B900008900029F4DC641CC5E600000928010067
:100BA00030313233343536373839616263646566E3
:100BB00000000000303132333435363738394142A5
:100BC000434445460000000070B504460D46E1B2BE
:100BD0000548FFF773FE00BF80210348FFF7F4FDCF
:100BE0000028F9D0204670BD00380140FFF71FFBF8
:100BF00000200849088008A0FFF766FE09E04FF4CE
:100C0000FA70FFF761FB0948006880F001000749AE
:100C10000860F4E73000002053797374656D206933
:100C200073207374617274200A0000000C0C014080
:100C3000500C00080000002038000000E808000800
:100C4000880C00083800002000040000F8080008A4
:100C500000A24A040000000000000000010203049A
:100C60000607080900000000010203040102030452
:100C70000607080902040608000000000000000042
:080C800000000000000000006C
:0400000508000131BD
:00000001FF
